:100000000C9463000C948B000C948B000C941B07D5
:100010000C941B070C941B070C948B000C948B0006
:100020000C948B000C948B000C948B000C94930715
:100030000C948B000C948B000C948B000C948B0014
:100040000C9479060C948B000C94E9060C94C3066E
:100050000C948B000C948B000C948B000C948B00F4
:100060000C948B000C948B000000000024002700EF
:100070002A0000000008000201000003040700003D
:1000800000000000000000000000230026002900FE
:1000900000000000250028002B00040404040404D0
:1000A0000404020202020202030303030303010227
:1000B00004081020408001020408102001020408F6
:1000C00010200B0A700D11241FBECFEFD8E0DEBF49
:1000D000CDBF23E0A4E4B2E001C01D92AA37B2076D
:1000E000E1F712E0A0E0B1E0EAEDF4E202C0059031
:1000F0000D92A434B107D9F710E0C2E6D0E004C0F5
:100100002197FE010E946810C136D107C9F70E94ED
:10011000480B0C9460120C94000090E0FC01EE5827
:10012000FF4F2491FC01E255FF4F3491FC01E6564C
:10013000FF4FE491EE23C9F0222339F0233001F17F
:10014000A8F4213019F1223029F1F0E0EE0FFF1F61
:10015000E057FF4FA591B4918FB7F894EC916111DE
:1001600026C030953E233C938FBF08952730A9F0D9
:100170002830C9F0243049F7809180008F7D03C07A
:10018000809180008F7780938000DFCF84B58F7758
:1001900084BDDBCF84B58F7DFBCF8091B0008F779E
:1001A0008093B000D2CF8091B0008F7DF9CF3E2BED
:1001B000DACFCF93DF9390E0FC01E255FF4F24911B
:1001C00086569F4FFC0184918823D1F090E0880FE0
:1001D000991FFC01E859FF4FA591B491FC01E0572C
:1001E000FF4FC591D49161110EC09FB7F8948C91C7
:1001F000E22FE0958E238C932881E223E8839FBF32
:10020000DF91CF9108958FB7F894EC91E22BEC93A6
:100210008FBFF6CF8E3008F08E5087708064809349
:100220007C0080917A00806480937A0080917A00CB
:1002300086FDFCCF809178009091790008953FB7BA
:10024000F89480918D0290918E02A0918F02B091CE
:10025000900226B5A89B05C02F3F19F00196A11D5D
:10026000B11D3FBFBA2FA92F982F8827BC01CD0100
:10027000620F711D811D911D42E0660F771F881F5F
:10028000991F4A95D1F708958F929F92AF92BF928E
:10029000CF92DF92EF92FF924B015C010E941F010F
:1002A0006B017C010E941F016C197D098E099F0959
:1002B000683E734081059105A8F321E0821A9108F8
:1002C000A108B10888EEC80E83E0D81EE11CF11C1D
:1002D00081149104A104B10429F7FF90EF90DF90FD
:1002E000CF90BF90AF909F908F900895AF92BF92A4
:1002F000CF92DF92EF92FF920F931F93CF93DF93F2
:100300006C017B018B01040F151FEB015E01AE1820
:10031000BF08C017D10759F06991D601ED91FC9142
:100320000190F081E02DC6010995892B79F7C5016F
:10033000DF91CF911F910F91FF90EF90DF90CF90C1
:10034000BF90AF900895FC01538D448D252F30E070
:10035000842F90E0821B930B541710F0CF960895D2
:1003600001970895FC01918D828D981761F0A28DFF
:10037000AE0FBF2FB11D5D968C91928D9F5F9F73C5
:10038000928F90E008958FEF9FEF0895FC01918D7B
:10039000828D981731F0828DE80FF11D858D90E0E8
:1003A00008958FEF9FEF0895FC01918D228D892F85
:1003B00090E0805C9F4F821B91098F73992708956D
:1003C00081E992E00E94D40121E0892B09F420E028
:1003D000822F089580E090E0892B29F00E94E001AF
:1003E00081110C9400000895FC01A48DA80FB92F71
:1003F000B11DA35ABF4F2C91848D90E001968F734D
:100400009927848FA689B7892C93A089B1898C916B
:10041000837080648C93938D848D981306C00288BA
:10042000F389E02D80818F7D80830895EF92FF9284
:100430000F931F93CF93DF93EC0181E0888F9B8D07
:100440008C8D98131AC0E889F989808185FF15C0C1
:100450009FB7F894EE89FF896083E889F9898081E4
:100460008370806480839FBF81E090E0DF91CF91B3
:100470001F910F91FF90EF900895F62E0B8D10E0D5
:100480000F5F1F4F0F731127E02E8C8D8E110CC044
:100490000FB607FCFACFE889F989808185FFF5CF8F
:1004A000CE010E94F401F1CFEB8DEC0FFD2FF11D79
:1004B000E35AFF4FF0829FB7F8940B8FEA89FB89CC
:1004C00080818062CFCFCF93DF93EC01888D88232A
:1004D000B9F0AA89BB89E889F9898C9185FD03C0A7
:1004E000808186FD0DC00FB607FCF7CF8C9185FF8C
:1004F000F2CF808185FFEDCFCE010E94F401E9CFDC
:10050000DF91CF91089520918602309187022817BC
:10051000390771F49091850280918402981741F017
:10052000E0918502F0E0EC5BFD4F808190E0089562
:100530008FEF9FEF08950895EF92FF920F931F930F
:10054000CF93DF93DC015C96ED90FC905D97E11416
:10055000F10479F481E090E013969C938E931297C6
:1005600090E080E0DF91CF911F910F91FF90EF908D
:1005700008955196ED91FC91529750968C91509719
:10058000982F90950FB75E962C915E97122F127050
:1005900021FD6095F8942081112319F1282B2083E7
:1005A000E7012197F1F728E0462F50E0308160FF06
:1005B0001AC0382B3083E7012197F1F7BA017595FE
:1005C0006795215089F7112381F0808189238083E9
:1005D0000FBF5C968D919C910197F1F781E090E0BF
:1005E000C1CF2923DCCF3923E5CF9081892BEFCFF1
:1005F00020918602309187022817390761F4809193
:1006000084022091850290E0805C9F4F821B9109BB
:100610008F739927089590E080E0089520918602D5
:100620003091870228173907B9F49091850280919B
:100630008402981789F0E0918502F0E0EC5BFD4FB1
:1006400080812091850230E02F5F3F4F2F73332749
:100650002093850290E008958FEF9FEF089508950D
:1006600090E080E00895CF93DF93EC0160E08E810D
:100670000E948D0061E08E810E948D0060E08E817D
:100680000E948D008BE891E00197F1F7DF91CF9107
:100690000895CF92DF92EF92FF920F931F93CF9323
:1006A000DF936C017C0187E0E80EF11CD0E0C0E034
:1006B000062F10E0B8010C2E02C0759567950A94BC
:1006C000E2F76170F70181917F010E948D00219610
:1006D000C430D10579F7C601DF91CF911F910F91F9
:1006E000FF90EF90DF90CF900C943303CF92DF9286
:1006F000EF92FF920F931F93CF93DF93EC01F62EAF
:10070000642F8C810E948D008D818F3F19F060E0F5
:100710000E948D000F2D10E08F8584FF25C06E0193
:1007200087E0C80ED11CF12CE12CB8010E2C02C0C0
:10073000759567950A94E2F76170F60181916F01F2
:100740000E948D00FFEFEF1AFF0A88E0E816F1041F
:1007500061F7CE01DF91CF911F910F91FF90EF9044
:10076000DF90CF900C943303B80184E075956795C2
:100770008A95E1F7CE010E9449036F2DCE01DF91EA
:10078000CF911F910F91FF90EF90DF90CF900C943D
:10079000490340E0682F8FE493E00C94760381E0F6
:1007A0000E94C9038BE39FE10197F1F70895CF936E
:1007B000DF93613029F090915E03986090935E031F
:1007C000609362031092630390E4909364038093B8
:1007D0006503805C8093660361E0809153030E940F
:1007E000D900809154038F3F19F061E00E94D90035
:1007F00061E0809155030E94D900CFE4D3E09E01CF
:100800002F54334080915E0384FD0BC084E090E060
:1008100021962817390744F461E08E810E94D9009F
:10082000EECF88E090E0F4CF8BE39DE00197F1F705
:1008300060E0809153030E948D0060E08091550339
:100840000E948D00809154038F3F19F060E00E9458
:100850008D0080915E0384FD34C063E08FE493E0FB
:100860000E944903CBE4D6E4CE010197F1F763E09F
:100870008FE493E00E9449032197F1F763E08FE44E
:1008800093E00E94490383E592E00197F1F762E06B
:100890008FE493E00E94490380915E0380620E948E
:1008A000C90384E080935F038CE00E94C9030E9427
:1008B000CF0382E08093600386E0DF91CF910C94B8
:1008C000C90380620E94C9038BE496E40197F1F7A3
:1008D00080915E0380620E94C90383E592E00197E4
:1008E000F1F780915E0380620E94C903D5CF909199
:1008F0006203891710F08FEF890FE82FF0E0E15BBA
:10090000FC4F848980680C94C90341E00E947603FF
:1009100081E090E00895FC0180819181009711F0C1
:100920000C940A110895FB0101900020E9F731971A
:10093000AF01461B570BDC01ED91FC910280F38166
:10094000E02D09948F929F92AF92BF920F931F93C5
:10095000CF93DF93CDB7DEB7A1970FB6F894DEBF84
:100960000FBECDBF19A2423008F44AE08E010F5DE0
:100970001F4F842E912CB12CA12CA50194010E9413
:100980002710E62FB901CA01EA3004F5E05DD8016D
:10099000EE938D01232B242B252B79F790E080E01B
:1009A000109729F0BD018FE493E00E949304A19673
:1009B0000FB6F894DEBF0FBECDBFDF91CF911F9170
:1009C0000F91BF90AF909F908F900895E95CDFCF1B
:1009D0004F925F926F927F928F929F92AF92BF924F
:1009E000CF92DF92EF92FF920F931F93CF936B0101
:1009F0007C01742EAC019B010E94FA0F66E371E04A
:100A0000811126C046015701E894B7F82FEF3FEF58
:100A10004FE75FE7C501B4010E94FA0F81110CC0D6
:100A20002FEF3FEF4FE75FE7C501B4010E948C0D48
:100A30006AE371E0181664F02FEF3FEF4FE75FE4D1
:100A4000C701B6010E94F50F1816ACF46EE371E011
:100A50008FE493E0CF911F910F91FF90EF90DF9083
:100A6000CF90BF90AF909F908F907F906F905F904E
:100A70004F900C9493042FEF3FEF4FE75FECC701CB
:100A8000B6010E948C0D87FDE1CF20E030E0A90186
:100A9000C701B6010E948C0D10E000E087FF0CC07A
:100AA00041E06DE28FE493E00E947603F7FAF09460
:100AB000F7F8F09401E010E0C0E060E070E080E062
:100AC0009FE37C1641F020E030E040E251E40E94D8
:100AD000540FCF5FF6CFA70196010E94E80E4B019D
:100AE0005C010E94C60F2B013C014AE00E94A20457
:100AF000080F191FCC23C9F1C301B2010E94910D47
:100B00009B01AC01C501B4010E94E70E4B015C01E1
:100B100041E06EE28FE493E00E9476030F5F1F4F87
:100B2000C15018F120E030E040E251E4C501B401C9
:100B30000E94F20D2B013C010E94C60F4B01B12C0B
:100B4000A12C4AE0C501B4010E94A204080F191F9C
:100B5000C501B4010E94910D9B01AC01C301B2011A
:100B60000E94E70E4B015C01DBCFC801CF911F91C2
:100B70000F91FF90EF90DF90CF90BF90AF909F903C
:100B80008F907F906F905F904F9008950F931F9379
:100B9000CF93DF93EC010E9493048C0162E471E037
:100BA000CE010E949304800F911FDF91CF911F917E
:100BB0000F9108950C949304CF93DF93EC0165E4B7
:100BC00071E081E992E00E94C60564E571E080E38E
:100BD00093E00E94C60568EE73E080E090E00E941A
:100BE00044016EE571E080E393E00E94DA0568E677
:100BF00071E080E393E00E94DA0566E671E080E34D
:100C000093E00E94C60568EE73E080E090E00E94E9
:100C100044014C815D816881798180E393E00E9489
:100C2000760162E471E080E393E00E94930464E65D
:100C300070E080E090E00E9444016AE180E393E08C
:100C40000E949C0268EE73E080E090E00E94440104
:100C500066E771E081E992E0DF91CF910C94C605DF
:100C6000EF92FF920F931F93CF93DF93EC017B01E1
:100C7000198218821B821A821D821C82FB0101903C
:100C80000020E9F731978F01061B170BB8016F5F42
:100C90007F4F90E080E00E9493110097B9F0998314
:100CA00088831B830A832C813D81232B11F4FC0153
:100CB00010821D830C83B70188819981DF91CF91C8
:100CC0001F910F91FF90EF900C9459128881998198
:100CD000009711F00E940A11198218821D821C824D
:100CE0001B821A82DF91CF911F910F91FF90EF909D
:100CF00008951F920F920FB60F9211242F933F93D6
:100D00008F939F93AF93BF938091890290918A02B2
:100D1000A0918B02B0918C023091880223E0230FC6
:100D20002D3758F50196A11DB11D2093880280939F
:100D3000890290938A02A0938B02B0938C028091D7
:100D40008D0290918E02A0918F02B0919002019637
:100D5000A11DB11D80938D0290938E02A0938F02EE
:100D6000B0939002BF91AF919F918F913F912F913E
:100D70000F900FBE0F901F90189526E8230F029634
:100D8000A11DB11DD2CF1F920F920FB60F92112449
:100D90002F933F934F935F936F937F938F939F9383
:100DA000AF93BF93EF93FF9381E992E00E94F40128
:100DB000FF91EF91BF91AF919F918F917F916F9133
:100DC0005F914F913F912F910F900FBE0F901F9009
:100DD00018951F920F920FB60F9211242F938F9395
:100DE0009F93EF93FF93E091A102F091A202808183
:100DF000E091A702F091A80282FD1BC09081809132
:100E0000AA028F5F8F732091AB02821741F0E091AD
:100E1000AA02F0E0EF56FD4F958F8093AA02FF9152
:100E2000EF919F918F912F910F900FBE0F901F9078
:100E300018958081F4CF1F920F920FB60F92112454
:100E40002F933F934F935F936F937F938F939F93D2
:100E5000AF93BF93EF93FF93E0918602F0918702E7
:100E6000309749F0A685B7858585968D91FF14C08A
:100E70009C918923A1F4FF91EF91BF91AF919F9134
:100E80008F917F916F915F914F913F912F910F9033
:100E90000FBE0F901F9018959C91892361F7A3892D
:100EA000B4899C918589809589238C9386899789BB
:100EB0000197F1F7608D718DA685B785558538E06E
:100EC00020E0CB010197F1F7822F90E0959587956F
:100ED000282F4C91452309F02068315091F7868DD9
:100EE00081FD20958091840290E001968F7399276F
:100EF00030918502381799F0A0918402B0E0AC5B84
:100F0000BD4F2C9380938402828D938D0197F1F7CE
:100F1000A389B4898C919589892B8C93ACCF868DCC
:100F20008160868FF1CF1F920F920FB60F9211241E
:100F30002F923F924F925F926F927F928F929F92E9
:100F4000AF92BF92CF92DF92EF92FF920F931F93D7
:100F50002F933F934F935F936F937F938F939F93C1
:100F6000AF93BF93EF93FF93CF93DF9300D000D065
:100F7000CDB7DEB7F89420912E0330912F033A833A
:100F8000298310E000E0D12CC12CA981BA811396ED
:100F90008C9113978C151D04B9F0B4F01496ED9153
:100FA000FC91E00FF11FFC83EB8380810E940A011A
:100FB000AB81BC8119969C938E931897BFEFCB1A87
:100FC000DB0A025C1F4FE1CF312C212CF12CE12CEC
:100FD00050E6852E5AEE952EA12CB12CE981FA818E
:100FE00083818E151F0409F00CF4EDC12481358135
:100FF000220D331D3C832B83D901D0964D905D90FB
:101000006D907C90D397F901808D918DA28DB38DD9
:10101000480E591E6A1E7B1E40AA51AA62AA73AAD4
:1010200084899589A689B7898201081B190B15AB9C
:1010300004AB868597850C979787868786859785E5
:1010400097FDC1C086859785873F99400CF0BEC04B
:10105000D9011E968D919C91EB81FC8197878687A3
:1010600080859185C2ACD3AC8C159D05CCF482856E
:10107000938565E070E00E941310CB01880F991FE3
:10108000680F791F601771075CF42085318580AD8A
:1010900091AD2817390724F48085918591AF80AFF1
:1010A000AB81BC8118968D919C911997C816D90671
:1010B0009CF418962D913C911997D6968D919C9100
:1010C000D7978217930744F418968D919C9119979E
:1010D000D7969C938E93D6970B3F11050CF4ACC01A
:1010E000EB81FC8180859185C816D9060CF0A4C0DF
:1010F00084858111A1C08285938565E070E00E949E
:101100001310CB01880F991F680F791F60177107A3
:101110000CF092C021E0248784899589A689B7893B
:10112000F201E81BF90BAB81BC811B96FC93EE939B
:101130001A97FD01448A558A668A778A85AD882385
:1011400071F015AE7C96CD01C096AB81BC811A962C
:101150002D913C91219331938E179F07B1F7EB812D
:10116000FC8184AD8823A9F114AE21E025AFAB81C9
:10117000BC8112968D919C91139797FD08C01C9687
:101180002C9161E0211101C060E00E948D00EB8193
:10119000FC810481158117FDEBC0868597856AE087
:1011A00070E00E9413107C836B8361E0802F0E94AB
:1011B000D9002B813C81232B09F0AAC060E0802F4D
:1011C0000E948D00D5C090E080E046CF86EF99E088
:1011D00043CFEB81FC817C964B815C81425D5F4F0C
:1011E00030E020E08281938181939193280F391F11
:1011F0004E175F07B9F7AB81BC811A968D919C9110
:101200001B979F969C938E939E97820F931F6AE0E5
:1012100070E00E94FF0F9B0150E040E0C501B40167
:101220000E944910EB81FC813783268321E02587CA
:1012300086EF99E097878687AB81BC8118968D9160
:101240009C9119978C159D053CF51C968C911C97CB
:10125000882311F11C961C921C97D8964D915C9195
:10126000D997D6962D913C91D797241B350B539641
:101270003C932E93529752968D919C9197FD019697
:1012800095958795840F951FEB81FC8193AF82AF75
:1012900097AB86AB91AF80AF053C19400CF467CF9C
:1012A000AB81BC8150968D919C915197DB969C931C
:1012B0008E93DA97E0E0F2E0D796FC93EE93D69720
:1012C000D996FC93EE93D89754964D925D926D9279
:1012D0007C925797E1E0DC96EC93DC97DD961C92CC
:1012E000DD971D961C921D9717961C921E921697BD
:1012F00028E532E01B963C932E931A971C961C927D
:101300001C9784E690E053969C938E9352972FCF30
:101310008B819C818F3F910511F461E050CFF801E2
:10132000FF27EE58FF4FE491E33079F150F4E130BC
:10133000D1F0E23021F1AB81BC81A038B1056CF76E
:101340003DCFE73071F1E830A9F1E430A1F78091A9
:1013500080008062809380002B813C8130938B00E1
:1013600020938A0005C084B5806884BD9B8197BDA9
:10137000BFEFEB1AFB0AEEE32E0E311C2FCE84B525
:10138000806284BDAB81A8BDF3CF8091800080686E
:1013900080938000EB81FC81F0938900E0938800CA
:1013A000E7CF8091B00080688093B0003B8130939C
:1013B000B300DECF8091B00080628093B0008B815B
:1013C0008093B400D5CF78940F900F900F900F902A
:1013D000DF91CF91FF91EF91BF91AF919F918F914D
:1013E0007F916F915F914F913F912F911F910F913D
:1013F000FF90EF90DF90CF90BF90AF909F908F9035
:101400007F906F905F904F903F902F900F900FBE06
:101410000F901F901895CF93109294021092930200
:1014200088EE93E0A0E0B0E080939502909396025E
:10143000A0939702B09398028AE091E09093920271
:101440008093910285EC90E090939E0280939D02A0
:1014500084EC90E09093A00280939F0280EC90E057
:101460009093A2028093A10281EC90E09093A40259
:101470008093A30282EC90E09093A6028093A50251
:1014800086EC90E09093A8028093A7021092AA02A3
:101490001092AB021092AC021092AD028AE08093DF
:1014A0006703109273031092720382E090E09093AE
:1014B00075038093740387E693E090932F038093E2
:1014C0002E0381E080936A038EE390E00E946E1009
:1014D000FC018EE090E0918380838FEF9FEF9383F8
:1014E00082839583848382E090E0A0E0B0E0808FE7
:1014F000918FA28FB38FDF015C96CF01C0961D92B2
:101500001D92A817B907D9F71586178216828EEE95
:1015100092E093878287148610AA11AA12AA13AAAE
:10152000148A158A168A178A80E092E097AB86ABF8
:1015300091AF80AF8089918993AF82AF84E690E0CC
:10154000938B828BC1E0C4AF15AE17861686F093DD
:101550006C03E0936B03C0936803109252031092E4
:1015600051038EE291E09093500380934F038DE0FE
:10157000809353038FEF809354038CE08093550343
:101580008BE0809356038AE08093570389E0809331
:10159000580388E08093590310925A0310925B031A
:1015A00010925C0310925D0310925E0361E080E193
:1015B0000E94D703109233031092320388EE93E017
:1015C000A0E0B0E08093340390933503A0933603FA
:1015D000B09337038CE191E0909331038093300313
:1015E0001092470310924603109249031092480349
:1015F00010924B0310924A0310924D0310924C0329
:1016000080914E038E7F8D7F80934E0381FB6627F2
:1016100060F96C2783E00E948D0061E083E00E9406
:10162000D900E1EBF0E0E491E0934003EDE9F0E074
:10163000E491F0E0EE0FFF1FE057FF4F859194918A
:10164000909342038093410360E082E00E94D900BE
:1016500080914E0381FD04C061E082E00E948D0014
:1016600082E080933C03E0EBF0E0E491E0933D0303
:10167000ECE9F0E0E491F0E0EE0FFF1FEA57FF4FD6
:101680008591949190933F0380933E03CF91089569
:10169000CF93DF9300D000D000D0CDB7DEB77894E1
:1016A00084B5826084BD84B5816084BD85B5826067
:1016B00085BD85B5816085BD80916E008160809318
:1016C0006E00109281008091810082608093810081
:1016D0008091810081608093810080918000816091
:1016E000809380008091B10084608093B1008091EC
:1016F000B00081608093B00080917A008460809314
:101700007A0080917A00826080937A0080917A00DA
:10171000816080937A0080917A00806880937A005B
:101720001092C100E091A102F091A20282E08083B8
:10173000E0919D02F0919E021082E0919F02F09153
:10174000A0028FEC80831092A902E091A502F09193
:10175000A60286E08083E091A302F091A40280813A
:1017600080618083E091A302F091A402808188606F
:101770008083E091A302F091A4028081806880833D
:10178000E091A302F091A40280818F7D808364E0C8
:1017900084E10E94D703E0916B03F0916C038EE02B
:1017A00090E091838083F89486E292E0918B808B25
:1017B00093AF82AF7894F12CE12CD12CC12C809185
:1017C0006A038C151D0469F164F100916B0310919B
:1017D0006C030E0D1F1DF8018281938197FD08C0D7
:1017E00061E00E94D90060E0F80182810E948D00D2
:1017F000F8018481958197FD0DC061E00E94D900B8
:10180000F801148161E0812F0E94D90060E0812FEE
:101810000E948D00FFEFCF1ADF0A8EE3E80EF11C65
:10182000CECF0E941F016053784F8F4F9F4F609320
:101830006D0370936E0380936F0390937003109207
:1018400071031092690380916803882389F01092D4
:101850008000109282008CE0809381008CE790E001
:10186000909389008093880082E080936F00789441
:1018700080E0282E80E0382E0E94CF0380E00E9476
:10188000770460E871E08FE493E00E94DA0582E07B
:101890000E94770462E971E08FE493E00E94DA0528
:1018A00083E00E94770461EA71E08FE493E00E9494
:1018B000DA0568E873E180E090E00E944401E0917D
:1018C0006B03F0916C03068117818FE00E940A017F
:1018D000BC01990F880B990B0E94930D20E030EC0E
:1018E0004FE754E40E94540F20E030E040EA50E417
:1018F0000E94F20D20E030E048EC52E40E94F20D2C
:101900002B013C0180E10E940A01BC01990F880B68
:10191000990B0E94930D20E030EC4FE754E40E94B5
:10192000540F20E030E048EC52E40E94F20D4B01ED
:101930005C010E94CF0380E00E94770463EB71E0BA
:101940008FE493E00E94DA056801012E000CEE0896
:10195000FF084AE0C701B601F7FE0EC041E06DE2A4
:101960008FE493E00E94760366277727CB016C19FA
:101970007D098E099F094AE00E94A20460EC71E093
:101980008FE493E00E94DA0581E00E94770465EC21
:1019900071E08FE493E00E94DA0541E0C301B201F7
:1019A0000E94E80463ED71E08FE493E00E94DA05A1
:1019B00082E00E94770466ED71E08FE493E00E947C
:1019C000DA0541E0C501B4010E94E80461EE71E06E
:1019D0008FE493E00E94DA050C5311090B301105D6
:1019E000B8F066EE71E081E992E00E94C60583E0FE
:1019F0000E94770466EE71E0CE0101960E943006E7
:101A0000CE0101960E94DC05CE0101960E948B0456
:101A100020E030E048E052E4C301B2010E948C0DA6
:101A200087FD0AC020E030E048E152E4C301B20182
:101A30000E94F50F1816BCF463E072E081E992E0B1
:101A40000E94C60583E00E94770463E072E0CE0145
:101A500001960E943006CE0101960E94DC05CE015F
:101A600001960E948B0420E030E044EB52E4C50173
:101A7000B4010E948C0D87FD0AC020E030E040EFE9
:101A800052E4C501B4010E94F50F1816BCF462E2DD
:101A900072E081E992E00E94C60583E00E9477042B
:101AA00062E272E0CE0101960E943006CE010196FC
:101AB0000E94DC05CE0101960E948B0468EE73E063
:101AC00080E090E00E9444012114310409F4D4CE56
:101AD0000E94E001882309F4CFCE0E940000CCCE02
:101AE0008CE191E0909331038093300380918602E2
:101AF000909187028053934071F4E0914303F091F9
:101B000044039081809145038095892380831092BE
:101B100087021092860208950E94CE0D08F481E09B
:101B20000895E89409C097FB3EF4909580957095D0
:101B300061957F4F8F4F9F4F9923A9F0F92F96E919
:101B4000BB279395F695879577956795B795F1118E
:101B5000F8CFFAF4BB0F11F460FF1BC06F5F7F4F2B
:101B60008F4F9F4F16C0882311F096E911C077233D
:101B700021F09EE8872F762F05C0662371F096E846
:101B8000862F70E060E02AF09A95660F771F881F15
:101B9000DAF7880F9695879597F90895990F0008B9
:101BA000550FAA0BE0E8FEEF16161706E807F9072F
:101BB000C0F012161306E407F50798F0621B730BCA
:101BC000840B950B39F40A2661F0232B242B252B4B
:101BD00021F408950A2609F4A140A6958FEF811DEE
:101BE000811D08950E94050E0C94760E0E94680EC9
:101BF00038F00E946F0E20F0952311F00C945F0EC8
:101C00000C94650E11240C94AA0E0E94870E70F39A
:101C1000959FC1F3950F50E0551F629FF001729F91
:101C2000BB27F00DB11D639FAA27F00DB11DAA1FA0
:101C3000649F6627B00DA11D661F829F2227B00DED
:101C4000A11D621F739FB00DA11D621F839FA00D78
:101C5000611D221F749F3327A00D611D231F849FC8
:101C6000600D211D822F762F6A2F11249F5750401F
:101C70009AF0F1F088234AF0EE0FFF1FBB1F661F9A
:101C8000771F881F91505040A9F79E3F510580F063
:101C90000C945F0E0C94AA0E5F3FE4F3983ED4F3CD
:101CA000869577956795B795F795E7959F5FC1F707
:101CB000FE2B880F911D9695879597F9089597F9B2
:101CC0009F6780E870E060E008959FEF80EC0895E2
:101CD00000240A941616170618060906089500240B
:101CE0000A9412161306140605060895092E039485
:101CF000000C11F4882352F0BB0F40F4BF2B11F4F9
:101D000060FF04C06F5F7F4F8F4F9F4F089557FD57
:101D10009058440F551F59F05F3F71F04795880F59
:101D200097FB991F61F09F3F79F0879508951216F0
:101D300013061406551FF2CF4695F1DF08C016169C
:101D400017061806991FF1CF86957105610508944D
:101D50000895E894BB2766277727CB0197F9089564
:101D60002F923F924F925F926F927F928F929F92AB
:101D7000AF92BF92CF92DF92EF92FF920F931F9399
:101D8000CF93DF93CDB7DEB7CA1BDB0B0FB6F8944A
:101D9000DEBF0FBECDBF09942A88398848885F848A
:101DA0006E847D848C849B84AA84B984C884DF80FB
:101DB000EE80FD800C811B81AA81B981CE0FD11DDF
:101DC0000FB6F894DEBF0FBECDBFED010895505899
:101DD000BB27AA270E94FF0E0C94760E0E94680E65
:101DE00038F00E946F0E20F039F49F3F19F426F46A
:101DF0000C94650E0EF4E095E7FB0C945F0EE92F52
:101E00000E94870E58F3BA17620773078407950775
:101E100020F079F4A6F50C94A90E0EF4E0950B2EA3
:101E2000BA2FA02D0B01B90190010C01CA01A0012C
:101E30001124FF27591B99F0593F50F4503E68F187
:101E40001A16F040A22F232F342F4427585FF3CFC8
:101E5000469537952795A795F0405395C9F77EF499
:101E60001F16BA0B620B730B840BBAF09150A1F0E2
:101E7000FF0FBB1F661F771F881FC2F70EC0BA0F68
:101E8000621F731F841F48F4879577956795B795F0
:101E9000F7959E3F08F0B0CF9395880F08F09927EB
:101EA000EE0F9795879508950E94680F0C94760E13
:101EB0000E946F0E58F00E94680E40F029F45F3FB8
:101EC00029F00C945F0E51110C94AA0E0C94650E1F
:101ED0000E94870E68F39923B1F3552391F3951B64
:101EE000550BBB27AA2762177307840738F09F5F3B
:101EF0005F4F220F331F441FAA1FA9F335D00E2EA8
:101F00003AF0E0E832D091505040E695001CCAF714
:101F10002BD0FE2F29D0660F771F881FBB1F2617D7
:101F200037074807AB07B0E809F0BB0B802DBF01AE
:101F3000FF2793585F4F3AF09E3F510578F00C947D
:101F40005F0E0C94AA0E5F3FE4F3983ED4F386959F
:101F500077956795B795F7959F5FC9F7880F911D9E
:101F60009695879597F90895E1E0660F771F881F8A
:101F7000BB1F621773078407BA0720F0621B730B3D
:101F8000840BBA0BEE1F88F7E09508950E948F0E20
:101F900088F09F5798F0B92F9927B751B0F0E1F02A
:101FA000660F771F881F991F1AF0BA95C9F714C0DA
:101FB000B13091F00E94A90EB1E008950C94A90EE1
:101FC000672F782F8827B85F39F0B93FCCF3869513
:101FD00077956795B395D9F73EF490958095709570
:101FE00061957F4F8F4F9F4F08950E94CE0D08F44B
:101FF0008FEF08950E94CE0D880B990B0895AA1BB0
:10200000BB1B51E107C0AA1FBB1FA617B70710F0E3
:10201000A61BB70B881F991F5A95A9F78095909515
:10202000BC01CD01089597FB072E16F4009407D04C
:1020300077FD09D00E94FF0F07FC05D03EF4909574
:1020400081959F4F0895709561957F4F0895A1E206
:102050001A2EAA1BBB1BFD010DC0AA1FBB1FEE1F22
:10206000FF1FA217B307E407F50720F0A21BB30B6D
:10207000E40BF50B661F771F881F991F1A9469F7E9
:1020800060957095809590959B01AC01BD01CF0145
:102090000895052E97FB1EF400940E94601057FDD2
:1020A00007D00E94271007FC03D04EF40C94601058
:1020B00050954095309521953F4F4F4F5F4F089574
:1020C00090958095709561957F4F8F4F9F4F0895A4
:1020D000EE0FFF1F0590F491E02D09940F931F93CD
:1020E000CF93DF938230910510F482E090E0E0918D
:1020F0007803F091790330E020E0B0E0A0E0309781
:1021000099F42115310509F44AC0281B390B2430F4
:102110003105D8F58A819B816115710589F1FB0133
:1021200093838283FE0111C040815181028113811A
:1021300048175907E0F04817590799F4109761F0CC
:1021400012960C93129713961C933296CF01DF913F
:10215000CF911F910F910895009378031093790305
:10216000F4CF2115310551F04217530738F0A9017A
:10217000DB019A01BD01DF01F801C1CFEF01F9CF09
:102180009093790380937803CDCFFE01E20FF31F84
:10219000819391932250310939832883D7CF20919D
:1021A000760330917703232B41F420910201309183
:1021B000030130937703209376032091000130913F
:1021C00001012115310541F42DB73EB740910401BD
:1021D00050910501241B350BE0917603F0917703B4
:1021E000E217F307A0F42E1B3F0B2817390778F0EE
:1021F000AC014E5F5F4F2417350748F04E0F5F1F4D
:102200005093770340937603819391939FCFF0E0AF
:10221000E0E09CCFCF93DF930097E9F0FC01329789
:1022200013821282A0917803B0917903ED0130E01E
:1022300020E01097A1F420813181820F931F20911B
:102240007603309177032817390709F061C0F093BE
:102250007703E0937603DF91CF910895EA01CE17DB
:10226000DF07E8F54A815B819E0141155105B1F711
:10227000E901FB83EA8349915991C40FD51FEC17FB
:10228000FD0761F4808191810296840F951FE90119
:1022900099838883828193819B838A83F0E0E0E045
:1022A00012968D919C9113970097B9F52D913C91C1
:1022B0001197CD010296820F931F209176033091E2
:1022C00077032817390739F6309751F510927903BB
:1022D00010927803B0937703A0937603BCCFD38397
:1022E000C28340815181840F951FC817D90761F4BB
:1022F0004E5F5F4F88819981480F591F51834083FA
:102300008A819B81938382832115310509F0B0CFA7
:10231000F0937903E09378039ECFFD01DC01C0CFF9
:1023200013821282D7CFB0E0A0E0E9E9F1E10C948A
:10233000B20E8C01009751F4CB010E946E108C01FB
:10234000C801CDB7DEB7E0E10C94CE0EFC01E60F7C
:10235000F71F9C0122503109E217F30708F49DC0D2
:10236000D901CD91DC911197C617D70798F0C530E8
:10237000D10530F3CE0104978617970708F3C61BE3
:10238000D70B2297C193D1936D937C93CF010E9479
:102390000A11D6CF5B01AC1ABD0A4C018C0E9D1EF2
:1023A000A0917803B0917903512C412CF12CE12CB0
:1023B000109731F5809176039091770388159905F0
:1023C00009F05CC04616570608F058C0809100011D
:1023D00090910101009741F48DB79EB7409104019F
:1023E00050910501841B950BE817F90708F055C0BB
:1023F000F0937703E0937603F90171836083A0CFB4
:102400008D919C91119712966C90129713967C90D7
:102410001397A815B90559F56C0142E0C40ED11CFB
:10242000CA14DB0420F1AC014A195B09DA011296E7
:10243000159780F06282738251834083D9016D9336
:102440007C93E114F10471F0D7011396FC93EE93A1
:10245000129776CF22968C0F9D1FF901918380836E
:10246000F301EFCFF0937903E093780369CF481637
:10247000590608F42C017D01D3019ACFCB010E94AB
:102480006E107C01009749F0AE01B8010E94501215
:10249000C8010E940A11870153CF10E000E050CF1D
:1024A000FB01DC0102C001900D9241505040D8F771
:1024B0000895FB01DC0101900D920020E1F70895E1
:1024C00010E0C2E6D0E004C0FE010E946810219630
:0A24D000C336D107C9F7F894FFCF17
:1024DA0000007A0380000000000016027601A301C2
:1024EA006302D401B201C601000000009C02760119
:1024FA0030039B02F8020E038302000000008504E9
:10250A00760130032F036E616E00696E66006F7686
:10251A0066000D0A0053656E64696E6720534D5359
:10252A002E2E2E0041542B434D47463D3100415437
:10253A002B434D47533D22002B3235313934393044
:10254A00353533323100534D532073656E742E0086
:10255A004865616C7468204D6F6E69746F72696E3C
:10256A0067004D6561737572696E672044617461B5
:10257A00005761697420536F6D652054696D652E2B
:10258A002E2E00486561727420526174653A2000EB
:10259A002042504D0054656D7065726174757265A4
:1025AA003A200020430050726573737572653A20B1
:1025BA0000206B50610041626E6F726D616C206821
:1025CA0065617274626561742064657465637465BB
:1025DA0064210041626E6F726D616C2074656D706A
:1025EA006572617475726520646574656374656487
:1025FA00210041626E6F726D616C20626C6F6F6454
:10260A00207072657373757265206465746563748E
:04261A0065642100D2
:00000001FF
